{
  "_format": "hh-sol-artifact-1",
  "contractName": "Raffle",
  "sourceName": "contracts/Raffle.sol",
  "abi": [
    {
      "inputs": [
        {
          "internalType": "address",
          "name": "vrfCoordinatorV2",
          "type": "address"
        },
        {
          "internalType": "uint256",
          "name": "entrenceFee",
          "type": "uint256"
        },
        {
          "internalType": "bytes32",
          "name": "gasLane",
          "type": "bytes32"
        },
        {
          "internalType": "uint64",
          "name": "subscriptionId",
          "type": "uint64"
        },
        {
          "internalType": "uint32",
          "name": "callbackGasLimit",
          "type": "uint32"
        },
        {
          "internalType": "uint256",
          "name": "interval",
          "type": "uint256"
        }
      ],
      "stateMutability": "nonpayable",
      "type": "constructor"
    },
    {
      "inputs": [
        {
          "internalType": "address",
          "name": "have",
          "type": "address"
        },
        {
          "internalType": "address",
          "name": "want",
          "type": "address"
        }
      ],
      "name": "OnlyCoordinatorCanFulfill",
      "type": "error"
    },
    {
      "inputs": [],
      "name": "Raffle_TransferFailed",
      "type": "error"
    },
    {
      "inputs": [],
      "name": "Raffle__NotEnoughETH",
      "type": "error"
    },
    {
      "inputs": [],
      "name": "Raffle__NotOpened",
      "type": "error"
    },
    {
      "inputs": [
        {
          "internalType": "uint256",
          "name": "currentBalance",
          "type": "uint256"
        },
        {
          "internalType": "uint256",
          "name": "numPlayers",
          "type": "uint256"
        },
        {
          "internalType": "uint256",
          "name": "raffleState",
          "type": "uint256"
        }
      ],
      "name": "Raffle__UpkeepNotNeeded",
      "type": "error"
    },
    {
      "anonymous": false,
      "inputs": [
        {
          "indexed": true,
          "internalType": "address",
          "name": "player",
          "type": "address"
        }
      ],
      "name": "RaffleEnter",
      "type": "event"
    },
    {
      "anonymous": false,
      "inputs": [
        {
          "indexed": true,
          "internalType": "uint256",
          "name": "requestId",
          "type": "uint256"
        }
      ],
      "name": "RequestedRaffleWinner",
      "type": "event"
    },
    {
      "anonymous": false,
      "inputs": [
        {
          "indexed": true,
          "internalType": "address",
          "name": "winner",
          "type": "address"
        }
      ],
      "name": "WinnerPicked",
      "type": "event"
    },
    {
      "inputs": [
        {
          "internalType": "bytes",
          "name": "",
          "type": "bytes"
        }
      ],
      "name": "checkUpkeep",
      "outputs": [
        {
          "internalType": "bool",
          "name": "upkeepNeeded",
          "type": "bool"
        },
        {
          "internalType": "bytes",
          "name": "",
          "type": "bytes"
        }
      ],
      "stateMutability": "nonpayable",
      "type": "function"
    },
    {
      "inputs": [],
      "name": "enterRaffle",
      "outputs": [],
      "stateMutability": "payable",
      "type": "function"
    },
    {
      "inputs": [],
      "name": "getEntrenceFee",
      "outputs": [
        {
          "internalType": "uint256",
          "name": "",
          "type": "uint256"
        }
      ],
      "stateMutability": "view",
      "type": "function"
    },
    {
      "inputs": [],
      "name": "getInterval",
      "outputs": [
        {
          "internalType": "uint256",
          "name": "",
          "type": "uint256"
        }
      ],
      "stateMutability": "view",
      "type": "function"
    },
    {
      "inputs": [],
      "name": "getLatestTimestamp",
      "outputs": [
        {
          "internalType": "uint256",
          "name": "",
          "type": "uint256"
        }
      ],
      "stateMutability": "view",
      "type": "function"
    },
    {
      "inputs": [],
      "name": "getNumberOfPlayers",
      "outputs": [
        {
          "internalType": "uint256",
          "name": "",
          "type": "uint256"
        }
      ],
      "stateMutability": "view",
      "type": "function"
    },
    {
      "inputs": [
        {
          "internalType": "uint256",
          "name": "index",
          "type": "uint256"
        }
      ],
      "name": "getPlayer",
      "outputs": [
        {
          "internalType": "address",
          "name": "",
          "type": "address"
        }
      ],
      "stateMutability": "view",
      "type": "function"
    },
    {
      "inputs": [],
      "name": "getRaffleState",
      "outputs": [
        {
          "internalType": "enum Raffle.RaffleState",
          "name": "",
          "type": "uint8"
        }
      ],
      "stateMutability": "view",
      "type": "function"
    },
    {
      "inputs": [],
      "name": "getRecentWinner",
      "outputs": [
        {
          "internalType": "address",
          "name": "",
          "type": "address"
        }
      ],
      "stateMutability": "view",
      "type": "function"
    },
    {
      "inputs": [],
      "name": "getRequestConfirmations",
      "outputs": [
        {
          "internalType": "uint256",
          "name": "",
          "type": "uint256"
        }
      ],
      "stateMutability": "pure",
      "type": "function"
    },
    {
      "inputs": [
        {
          "internalType": "bytes",
          "name": "",
          "type": "bytes"
        }
      ],
      "name": "performUpkeep",
      "outputs": [],
      "stateMutability": "nonpayable",
      "type": "function"
    },
    {
      "inputs": [
        {
          "internalType": "uint256",
          "name": "requestId",
          "type": "uint256"
        },
        {
          "internalType": "uint256[]",
          "name": "randomWords",
          "type": "uint256[]"
        }
      ],
      "name": "rawFulfillRandomWords",
      "outputs": [],
      "stateMutability": "nonpayable",
      "type": "function"
    }
  ],
  "bytecode": "0x6101606040523480156200001257600080fd5b5060405162001837380380620018378339818101604052810190620000389190620001ad565b858073ffffffffffffffffffffffffffffffffffffffff1660808173ffffffffffffffffffffffffffffffffffffffff1660601b81525050508573ffffffffffffffffffffffffffffffffffffffff1660c08173ffffffffffffffffffffffffffffffffffffffff1660601b815250508460a081815250508360e081815250508267ffffffffffffffff166101008167ffffffffffffffff1660c01b815250508163ffffffff166101208163ffffffff1660e01b815250506000600160146101000a81548160ff02191690836001811115620001195762000118620002b5565b5b0217905550426002819055508061014081815250505050505050506200036b565b6000815190506200014b81620002e9565b92915050565b600081519050620001628162000303565b92915050565b60008151905062000179816200031d565b92915050565b600081519050620001908162000337565b92915050565b600081519050620001a78162000351565b92915050565b60008060008060008060c08789031215620001cd57620001cc620002e4565b5b6000620001dd89828a016200013a565b9650506020620001f089828a0162000168565b95505060406200020389828a0162000151565b94505060606200021689828a0162000196565b93505060806200022989828a016200017f565b92505060a06200023c89828a0162000168565b9150509295509295509295565b6000620002568262000267565b9050919050565b6000819050919050565b600073ffffffffffffffffffffffffffffffffffffffff82169050919050565b6000819050919050565b600063ffffffff82169050919050565b600067ffffffffffffffff82169050919050565b7f4e487b7100000000000000000000000000000000000000000000000000000000600052602160045260246000fd5b600080fd5b620002f48162000249565b81146200030057600080fd5b50565b6200030e816200025d565b81146200031a57600080fd5b50565b620003288162000287565b81146200033457600080fd5b50565b620003428162000291565b81146200034e57600080fd5b50565b6200035c81620002a1565b81146200036857600080fd5b50565b60805160601c60a05160c05160601c60e0516101005160c01c6101205160e01c61014051611450620003e7600039600081816107960152610804015260006106550152600061063201526000610611015260006105d501526000818161038b01526103b10152600081816102c9015261031d01526114506000f3fe6080604052600436106100a75760003560e01c80635f1b0fd8116100645780635f1b0fd8146101895780636e04ff0d146101b457806391ad27b4146101f2578063e55ae4e81461021d578063f43b52cb1461025a578063fd6673f514610285576100a7565b8063115cbaf5146100ac5780631fe543e3146100d757806321ccad05146101005780632cfcc5391461012b5780634585e33b14610135578063473f1ddc1461015e575b600080fd5b3480156100b857600080fd5b506100c16102b0565b6040516100ce9190611018565b60405180910390f35b3480156100e357600080fd5b506100fe60048036038101906100f99190610dfd565b6102c7565b005b34801561010c57600080fd5b50610115610387565b6040516101229190611033565b60405180910390f35b6101336103af565b005b34801561014157600080fd5b5061015c60048036038101906101579190610d0d565b61051e565b005b34801561016a57600080fd5b5061017361071d565b6040516101809190610f51565b60405180910390f35b34801561019557600080fd5b5061019e610747565b6040516101ab9190611033565b60405180910390f35b3480156101c057600080fd5b506101db60048036038101906101d69190610d5a565b610753565b6040516101e9929190610f95565b60405180910390f35b3480156101fe57600080fd5b50610207610800565b6040516102149190611033565b60405180910390f35b34801561022957600080fd5b50610244600480360381019061023f9190610da3565b610828565b6040516102519190610f51565b60405180910390f35b34801561026657600080fd5b5061026f61086f565b60405161027c9190611033565b60405180910390f35b34801561029157600080fd5b5061029a610879565b6040516102a79190611033565b60405180910390f35b6000600160149054906101000a900460ff16905090565b7f000000000000000000000000000000000000000000000000000000000000000073ffffffffffffffffffffffffffffffffffffffff163373ffffffffffffffffffffffffffffffffffffffff161461037957337f00000000000000000000000000000000000000000000000000000000000000006040517f1cf993f4000000000000000000000000000000000000000000000000000000008152600401610370929190610f6c565b60405180910390fd5b6103838282610885565b5050565b60007f0000000000000000000000000000000000000000000000000000000000000000905090565b7f0000000000000000000000000000000000000000000000000000000000000000341015610409576040517f9894879b00000000000000000000000000000000000000000000000000000000815260040160405180910390fd5b6000600181111561041d5761041c611330565b5b600160149054906101000a900460ff16600181111561043f5761043e611330565b5b14610476576040517f21025eb500000000000000000000000000000000000000000000000000000000815260040160405180910390fd5b6000339080600181540180825580915050600190039060005260206000200160009091909190916101000a81548173ffffffffffffffffffffffffffffffffffffffff021916908373ffffffffffffffffffffffffffffffffffffffff1602179055503373ffffffffffffffffffffffffffffffffffffffff167f0805e1d667bddb8a95f0f09880cf94f403fb596ce79928d9f29b74203ba284d460405160405180910390a2565b600061053860405180602001604052806000815250610753565b509050806105a75747600080549050600160149054906101000a900460ff16600181111561056957610568611330565b5b6040517f584327aa00000000000000000000000000000000000000000000000000000000815260040161059e9392919061104e565b60405180910390fd5b60018060146101000a81548160ff021916908360018111156105cc576105cb611330565b5b021790555060007f000000000000000000000000000000000000000000000000000000000000000073ffffffffffffffffffffffffffffffffffffffff16635d3b1d307f00000000000000000000000000000000000000000000000000000000000000007f000000000000000000000000000000000000000000000000000000000000000060037f000000000000000000000000000000000000000000000000000000000000000060016040518663ffffffff1660e01b8152600401610696959493929190610fc5565b602060405180830381600087803b1580156106b057600080fd5b505af11580156106c4573d6000803e3d6000fd5b505050506040513d601f19601f820116820180604052508101906106e89190610dd0565b9050807fcd6e45c8998311cab7e9d4385596cac867e20a0587194b954fa3a731c93ce78b60405160405180910390a250505050565b6000600160009054906101000a900473ffffffffffffffffffffffffffffffffffffffff16905090565b6000600360ff16905090565b600060606000600160149054906101000a900460ff16600181111561077b5761077a611330565b5b6000600181111561078f5761078e611330565b5b14905060007f0000000000000000000000000000000000000000000000000000000000000000600254426107c3919061112e565b119050600080600080549050119050600080471190508380156107e35750825b80156107ec5750805b80156107f55750815b955050505050915091565b60007f0000000000000000000000000000000000000000000000000000000000000000905090565b600080828154811061083d5761083c61135f565b5b9060005260206000200160009054906101000a900473ffffffffffffffffffffffffffffffffffffffff169050919050565b6000600254905090565b60008080549050905090565b60008080549050826000815181106108a05761089f61135f565b5b60200260200101516108b291906112a1565b905060008082815481106108c9576108c861135f565b5b9060005260206000200160009054906101000a900473ffffffffffffffffffffffffffffffffffffffff16905080600160006101000a81548173ffffffffffffffffffffffffffffffffffffffff021916908373ffffffffffffffffffffffffffffffffffffffff1602179055506000600160146101000a81548160ff0219169083600181111561095d5761095c611330565b5b0217905550600067ffffffffffffffff81111561097d5761097c61138e565b5b6040519080825280602002602001820160405280156109ab5781602001602082028036833780820191505090505b50600090805190602001906109c1929190610ad8565b504260028190555060008173ffffffffffffffffffffffffffffffffffffffff16476040516109ef90610f3c565b60006040518083038185875af1925050503d8060008114610a2c576040519150601f19603f3d011682016040523d82523d6000602084013e610a31565b606091505b5050905080610a6c576040517fba31c4f300000000000000000000000000000000000000000000000000000000815260040160405180910390fd5b600160009054906101000a900473ffffffffffffffffffffffffffffffffffffffff1673ffffffffffffffffffffffffffffffffffffffff167f5b690ec4a06fe979403046eaeea5b3ce38524683c3001f662c8b5a829632f7df60405160405180910390a25050505050565b828054828255906000526020600020908101928215610b51579160200282015b82811115610b505782518260006101000a81548173ffffffffffffffffffffffffffffffffffffffff021916908373ffffffffffffffffffffffffffffffffffffffff16021790555091602001919060010190610af8565b5b509050610b5e9190610b62565b5090565b5b80821115610b7b576000816000905550600101610b63565b5090565b6000610b92610b8d846110aa565b611085565b90508083825260208201905082856020860282011115610bb557610bb46113c7565b5b60005b85811015610be55781610bcb8882610ce3565b845260208401935060208301925050600181019050610bb8565b5050509392505050565b6000610c02610bfd846110d6565b611085565b905082815260208101848484011115610c1e57610c1d6113cc565b5b610c2984828561122e565b509392505050565b600082601f830112610c4657610c456113c2565b5b8135610c56848260208601610b7f565b91505092915050565b60008083601f840112610c7557610c746113c2565b5b8235905067ffffffffffffffff811115610c9257610c916113bd565b5b602083019150836001820283011115610cae57610cad6113c7565b5b9250929050565b600082601f830112610cca57610cc96113c2565b5b8135610cda848260208601610bef565b91505092915050565b600081359050610cf281611403565b92915050565b600081519050610d0781611403565b92915050565b60008060208385031215610d2457610d236113d6565b5b600083013567ffffffffffffffff811115610d4257610d416113d1565b5b610d4e85828601610c5f565b92509250509250929050565b600060208284031215610d7057610d6f6113d6565b5b600082013567ffffffffffffffff811115610d8e57610d8d6113d1565b5b610d9a84828501610cb5565b91505092915050565b600060208284031215610db957610db86113d6565b5b6000610dc784828501610ce3565b91505092915050565b600060208284031215610de657610de56113d6565b5b6000610df484828501610cf8565b91505092915050565b60008060408385031215610e1457610e136113d6565b5b6000610e2285828601610ce3565b925050602083013567ffffffffffffffff811115610e4357610e426113d1565b5b610e4f85828601610c31565b9150509250929050565b610e6281611162565b82525050565b610e7181611174565b82525050565b610e8081611180565b82525050565b6000610e9182611107565b610e9b8185611112565b9350610eab81856020860161123d565b610eb4816113db565b840191505092915050565b610ec8816111f8565b82525050565b6000610edb600083611123565b9150610ee6826113ec565b600082019050919050565b610efa816111bd565b82525050565b610f09816111c7565b82525050565b610f18816111d7565b82525050565b610f278161120a565b82525050565b610f368161121c565b82525050565b6000610f4782610ece565b9150819050919050565b6000602082019050610f666000830184610e59565b92915050565b6000604082019050610f816000830185610e59565b610f8e6020830184610e59565b9392505050565b6000604082019050610faa6000830185610e68565b8181036020830152610fbc8184610e86565b90509392505050565b600060a082019050610fda6000830188610e77565b610fe76020830187610f0f565b610ff46040830186610f1e565b6110016060830185610f00565b61100e6080830184610f2d565b9695505050505050565b600060208201905061102d6000830184610ebf565b92915050565b60006020820190506110486000830184610ef1565b92915050565b60006060820190506110636000830186610ef1565b6110706020830185610ef1565b61107d6040830184610ef1565b949350505050565b600061108f6110a0565b905061109b8282611270565b919050565b6000604051905090565b600067ffffffffffffffff8211156110c5576110c461138e565b5b602082029050602081019050919050565b600067ffffffffffffffff8211156110f1576110f061138e565b5b6110fa826113db565b9050602081019050919050565b600081519050919050565b600082825260208201905092915050565b600081905092915050565b6000611139826111bd565b9150611144836111bd565b925082821015611157576111566112d2565b5b828203905092915050565b600061116d8261119d565b9050919050565b60008115159050919050565b6000819050919050565b6000819050611198826113ef565b919050565b600073ffffffffffffffffffffffffffffffffffffffff82169050919050565b6000819050919050565b600063ffffffff82169050919050565b600067ffffffffffffffff82169050919050565b600060ff82169050919050565b60006112038261118a565b9050919050565b6000611215826111eb565b9050919050565b6000611227826111eb565b9050919050565b82818337600083830152505050565b60005b8381101561125b578082015181840152602081019050611240565b8381111561126a576000848401525b50505050565b611279826113db565b810181811067ffffffffffffffff821117156112985761129761138e565b5b80604052505050565b60006112ac826111bd565b91506112b7836111bd565b9250826112c7576112c6611301565b5b828206905092915050565b7f4e487b7100000000000000000000000000000000000000000000000000000000600052601160045260246000fd5b7f4e487b7100000000000000000000000000000000000000000000000000000000600052601260045260246000fd5b7f4e487b7100000000000000000000000000000000000000000000000000000000600052602160045260246000fd5b7f4e487b7100000000000000000000000000000000000000000000000000000000600052603260045260246000fd5b7f4e487b7100000000000000000000000000000000000000000000000000000000600052604160045260246000fd5b600080fd5b600080fd5b600080fd5b600080fd5b600080fd5b600080fd5b6000601f19601f8301169050919050565b50565b60028110611400576113ff611330565b5b50565b61140c816111bd565b811461141757600080fd5b5056fea2646970667358221220e9f56b75ed3ea4c4b1514ac0efa929123ea15d861cac8aee6561b51f574dd92864736f6c63430008070033",
  "linkReferences": {},
  "deployedLinkReferences": {}
}